:020000040000FA
:10000000FE2F792F812F892F912F992FA12FA92F83
:10001000B12FB92FC12FC92FD12FD92FE12FF22EF8
:10002000FA2E022F0A2F122F1A2F222F2A2F322FA9
:100030003A2F422F4A2F522F5A2F00308A0004089D
:08004000840A820700340D342C
:100D60000800F001013084001D2077270800B0261C
:100D7000B126BA2EBD26BA2E0028F001F00A0130A5
:100D800084001D20F026F430F0000130F100D3265D
:100D9000F001013084001D20F026F430F000013015
:100DA000F100D3260800F301C8307306031DD92EC5
:100DB000DA2EDC2EEF2EEF2E0000000000000000E7
:100DC00000000000000000000130F2007208F3078C
:100DD000C8307306031DED2EEE2EDC2EEF2E08001C
:100DE000F300632F700C83120313031C0510031808
:100DF0000514762F700C83120313031C851003183F
:100E00008514762F700C83120313031C051103182D
:100E10000515762F700C83120313031C851103181C
:100E20008515762F700C83120313031C051303180A
:100E30000517762F700C83120313031C85130318F8
:100E40008517762F700C83120313031C06100318EA
:100E50000614762F700C83120313031C86100318DC
:100E60008614762F700C83120313031C06110318CB
:100E70000615762F700C83120313031C86110318BA
:100E80008615762F700C83120313031C06120318A9
:100E90000616762F700C83120313031C8612031898
:100EA0008616762F700C83120313031C0613031887
:100EB0000617762F700C83120313031C8613031876
:100EC0008617762F762F7308F100F2017208003A28
:100ED00003196B2F762F710884000E30040203185B
:100EE000762F00308A000F30040782000800F300DC
:100EF000EA2F700C83160313031C05100318051446
:100F0000FD2F700C83160313031C85100318851422
:100F1000FD2F700C83160313031C05110318051510
:100F2000FD2F700C83160313031C85110318851500
:100F3000FD2F700C83160313031C051303180517EC
:100F4000FD2F700C83160313031C851303188517DC
:100F5000FD2F700C83160313031C061003180614D0
:100F6000FD2F700C83160313031C861003188614C0
:100F7000FD2F700C83160313031C061103180615AE
:100F8000FD2F700C83160313031C8611031886159E
:100F9000FD2F700C83160313031C0612031806168C
:100FA000FD2F700C83160313031C8612031886167C
:100FB000FD2F700C83160313031C0613031806176A
:100FC000FD2F700C83160313031C8613031886175A
:100FD000FD2FFD2F7308F100F2017208003A03198A
:100FE000F22FFD2F710884000E3004020318FD2F2C
:100FF00000308A0001300407820008008301B72E08
:02400E0038FF79
:00000001FF
